:1000000004308A004C2C00008A396F37F53175377F
:10001000753D3D000C104F270001383084008313DC
:100020000008031921280130F800F701F70B162802
:10003000F80B15284A30F700F70B1C281F28800BF7
:10004000132808003F0EF039F7000F30060577043B
:100050008600000006142C28061008000608F70089
:10006000060E0F39F80008008316061086100611D8
:10007000831286100F3083160605F038860083122F
:1000800006150000061400002E207808BF00061098
:100090000000061400002E207808BE0006100F3065
:1000A00083160605860083123F0EF700F030F70531
:1000B00077083E04F8007808BE00BE1B3A283C1CB6
:1000C00086103C18861400000611000006103D0E34
:1000D000BE000F30BE053E08BF0022203D080F398C
:1000E000BE00BF00222008002830AC000C30AD005C
:1000F0000130AE000630AF000610861006110F303A
:100100008316060586000610861006110F3083122E
:10011000B8000D200130AB002B08033C031C9828CD
:100120000330BF0022200530B8000D20AB0A8C2818
:100130000230BF0022200530B8000D20AB012B0893
:10014000033C031CAF282C302B07840083130008CA
:10015000B000BC013008BD003420AB0A9F288A11D2
:100160000A12912C390BB528B8284030BA00B928AA
:10017000BA0101303802BA073A088038BB00BC0126
:100180003B08BD00342008003708073A0319D2287D
:100190000B3A0319D728063A0319DF28023A031944
:1001A000E528EA280130B800B900B220EF28BC01E8
:1001B0000130BD0034200230B8000D20EF2801309E
:1001C000B8000230B900B220EF28BC011030BD00E9
:1001D0003420EF280130BC003708BD00342008006F
:1001E0001030AF00F701FA01AC0CAB0C031CFE2879
:1001F0002D08F7070318FA0A2E08FA07FA0CF70C6D
:10020000F90CF80CAF0BF42808000B08AB008B13AB
:10021000831603178C170C140000000083120313BD
:10022000AB1B8B1703170C087F39031959290313CC
:10023000AB0003170D080313AC0003170F080313DB
:10024000AD002B08B700C4202C0803178D00031342
:100250002D0803178F0003130B08AE008B138316B2
:1002600003178C170C140000000083120313AE1B3D
:100270008B1703170C0D0E0D7F3903195929031322
:10028000AB0003170D080313AC0003170F0803138B
:10029000AD002B08B700C4202C0803178D000313F2
:1002A0002D0803178F008D0A03198F0A03130529E0
:1002B000031703130800831860293F308400831359
:1002C000F701F801F901FA01BF01C001C101C20142
:1002D0003E083D043C043B0403199E292030C30022
:1002E0000310B70DB80DB90DBA0DBF0DC00DC10D7E
:1002F000C20D3E084202031D87293D084102031D2D
:1003000087293C084002031D87293B083F02031C44
:1003100098293B08BF023C08031C3C0FC0023D0863
:10032000031C3D0FC1023E08031C3E0FC202031412
:10033000F70DF80DF90DFA0DC30B70293F08800079
:10034000840A40088000840A41088000840A420828
:10035000800008000408AF00AE1FBB29AF03AF1632
:10036000AB09AC09AD09AE09AB0A0319AC0A031914
:10037000AD0A0319AE0A3B30B6009A30B500CA3058
:10038000B400B3010A30B10083142B30840083130E
:100390002E08BA002D08B9002C08B8002B08B700A9
:1003A0003608BE003508BD003408BC003308BB0069
:1003B0005B217808F708031DF0293108013A031979
:1003C000F0292F080319F2290F3931020319EA29FC
:1003D00003180E2AAF1B0E2A2F1BF22920300A2ADF
:1003E0002030AF05AF1EFD29AF127708AF002D30CA
:1003F000B700C4202F08F700AF013030AF1E0A2A23
:10040000AF127708AF002D30B700C4202F08F700D7
:10041000AF013030F7077708B700C42083103608E3
:10042000BA003508B9003408B8003308B700BE0177
:10043000BD01BC010A30BB005B217A08B600790817
:10044000B5007808B4007708B300B10BC4290800E0
:100450000430AB00FA30B8000D20AB0B2A2A043070
:1004600003178D0000308F00031305210130250292
:10047000FC3E0318EB2A043EEF2A22082007A600C0
:100480002108A70023080318230FA707A801A90123
:10049000413084002908AE002808AD002708AC00D0
:1004A0002608AB00AA21A101A001A301A201A40179
:1004B000A501A901A801A701A601EB2A2208200293
:1004C000A6002108A7002308031C230FA702A801E8
:1004D000A901413084002908AE002808AD00270892
:1004E000AC002608AB00AA21A101A001A301A20132
:1004F000A401A501A901A801A701A601EB2A2108D1
:10050000AC002008AB002308AE002208AD00F020AC
:10051000A901A8017908A7007808A6004130840045
:100520002908AE002808AD002708AC002608AB005B
:10053000AA21A101A001A301A201A401A501A90171
:10054000A801A701A601EB2A2108AC002008AB00F6
:100550002308AE002208AD00F801F901F701FA0105
:100560002E08031DB62A2D080319D02A1030AF001B
:100570000310AB0DAC0DF70DFA0D2E087A02031D1A
:10058000C32A2D087702031CCC2A2D08F702031C6E
:10059000FA032E08FA020314F80DF90DAF0BB82A6E
:1005A000A901A8017908A7007808A60041308400B5
:1005B0002908AE002808AD002708AC002608AB00CB
:1005C000AA21A101A001A301A201A401A501A901E1
:1005D000A801A701A601A5018A110A12372C0A1049
:1005E0008A140A1182073D2A5E2A7F2AA42A081447
:1005F000081E102B081AFA2A3730B700C42007301B
:10060000A4002308AC002208AB00AE010A30AD0004
:10061000F02024087807A2007908A3000318A30A91
:10062000881E282B881A122B3830B700C4200830B7
:10063000A4002308AC002208AB00AE010A30AD00D4
:10064000F02024087807A2007908A3000318A30A61
:10065000081F402B081B2A2B3930B700C420093053
:10066000A4002308AC002208AB00AE010A30AD00A4
:10067000F02024087807A2007908A3000318A30A31
:10068000881F4F2B881B422B2F30B700C420230814
:10069000A1002208A0000430A500A301A2010810B7
:1006A0008814081E692B081A532B3430B700C42055
:1006B0000430A4002308AC002208AB00AE010A30CD
:1006C000AD00F02024087807A2007908A3000318E1
:1006D000A30A881E812B881A6B2B3530B700C420E3
:1006E0000530A4002308AC002208AB00AE010A309C
:1006F000AD00F02024087807A2007908A3000318B1
:10070000A30A081F992B081B832B3630B700C4207F
:100710000630A4002308AC002208AB00AE010A306A
:10072000AD00F02024087807A2007908A300031880
:10073000A30A881FA82B881B9B2B2A30B700C42034
:100740002308A1002208A0000330A500A301A201F4
:1007500088100815081EC22B081AAC2B3130B700C0
:10076000C4200130A4002308AC002208AB00AE0175
:100770000A30AD00F02024087807A2007908A30011
:100780000318A30A881EDA2B881AC42B3230B7004C
:10079000C4200230A4002308AC002208AB00AE0144
:1007A0000A30AD00F02024087807A2007908A300E1
:1007B0000318A30A081FF22B081BDC2B3330B700E9
:1007C000C4200330A4002308AC002208AB00AE0113
:1007D0000A30AD00F02024087807A2007908A300B1
:1007E0000318A30A881F012C881BF42B2D30B70097
:1007F000C4202308A1002208A0000230A500A30104
:10080000A20108118815081E1B2C081A052C0A3095
:1008100003178D0000308F00031305210C30B70043
:10082000C420A101A001A301A201A401A501A90165
:10083000A801A701A601881E322C881A1D2C303071
:10084000B700C420A4012308AC002208AB00AE010D
:100850000A30AD00F02024087807A2007908A30030
:100860000318A30A081F372C081B342C282A881FBA
:10087000462C881B392C2B30B700C4202308A1003C
:100880002208A0000130A500A301A20188112508BB
:10089000F8008A110A12922C03081F398300A10163
:1008A000A001A301A201A401A501A901A801A7011A
:1008B000A601FF30AA0083161F149F141F159F1155
:1008C00007309C008313091283129412AA122A087B
:1008D0008316870083122A162A088316870083123C
:1008E000AA112A0883168700013083129400003071
:1008F0008316940083129001F80092000030831652
:1009000092001F149F141F159F1183121F10F030A7
:1009100097059D05003083168600F030880083120D
:080920007428F72A912C6300F2
:02400E00313F40
:00000001FF
;PIC16F877A
;CRC=98B6  CREATED="01-Tem-19 20:11"
